:020000023000CC
:10600000F03F0020B1710300057203002563030017
:106010000000000000000000000000000000000080
:1060200000000000000000000000000007720300F4
:106030000000000000000000097203000B72030062
:106040000D7203000D720300758403000D720300CE
:10605000D5A10300000000007594030011A5030002
:106060000D7203000D720300F1A603000D72030010
:106070000D7203000D7203000D7203000D72030018
:106080000D720300817F03000D7203000D72030087
:10609000B97F0300B1900300FDA003000D7203005F
:1060A0000D7203000D7203000000000000000000EC
:1060B00000000000000000000000000000000000E0
:1060C000F0B5474680B484B000AF041C381C2749A3
:1060D000102200F0E7FE251C10352548102101F0A4
:1060E0009DF80023637103202071201CA521042248
:1060F00000F004FF08210A1990460820111C01F045
:10610000B5F8281C1B49082200F0CCFE201C1830D2
:106110001949082200F0C6FE291C1031102001F098
:10612000A5F8201C30308026710580235A0000F02D
:10613000B9FE982041006218281C9026710000F0DA
:1061400089FD9A225600281C311C3A1C434600F057
:10615000F3FE281C311C002202F0F4F9A071050A9C
:10616000E571BD4604B004BC9046F0BDB0C003006C
:106170008000001060000010A400001098B500AF6F
:106180008379C47924021C4310309A2149000022EB
:1061900002F0D8F9201A44426041BD4698BDC0467D
:1061A000B0B584B000AF041C0D1C381C0A49102285
:1061B00000F078FE281C211CA222520000F072FE82
:1061C000281C1030231C08339A2149003A1C00F087
:1061D000E9FFBD4604B0B0BDB0C003002ADF704780
:1061E00039DF704798B500AF031C084A121A90B205
:1061F0002C240855000A2D240855081C2E301104A3
:106200000A0C191C00F04EFEBD4698BD004000204F
:1062100090B583B000AF78603960141C1E4800F060
:106220008DF81E4800F08AF8201C00F087F81C4CFE
:10623000201C00F083F81B4800F080F8381C042173
:1062400000F090F8201C00F079F8174800F076F87C
:10625000381D042100F086F8201C00F06FF8134868
:1062600000F06CF8124800F069F8201C00F066F8A5
:10627000104802F049FF00F059F8722807D10120B8
:10628000FFF7AEFF002804D1FFF7A8FF01E0FFF7FA
:10629000A5FFBD4603B090BDC0C00300CCC0030045
:1062A0007CC10300D4C00300DCC00300E4C00300D1
:1062B000ECC003008813000080B500AF031C0A1C6B
:1062C0000248191CFFF7A4FFBD4680BDEFBEADDE3E
:1062D000B0B500AF051C8022D4050F4BE058022159
:1062E0000143E1500D4C5922534223704220414258
:1062F000617053225342A37022204142E17008484A
:10630000291C042200F0CEFD281D211CFFF76AFF86
:1063100000BEBD46B0BDC0461C0500000400002004
:1063200008000020EFF30880D2E7C04680B500AF38
:10633000014B587FBD4680BD0424002098B500AFB6
:10634000041C074B187F002808D02078002805D0AF
:1063500002F0E8F8013420780028F9D1BD4698BD54
:1063600004240020F8B54F464646C0B400AF041CD4
:106370000E1C274B187F002832D0002930D0254D25
:106380000F229046013901230B40994620780209DB
:10639000A85C02F0C7F8217843461940685C0134D4
:1063A00002F0C0F8013E002E1FD119E02278110939
:1063B000685C02F0B7F8237840460340E85C02F0DE
:1063C000B1F861780B09E85C02F0ACF860784246FD
:1063D0001040285C023402F0A5F8023E002EE5D100
:1063E000BD460CBC90469946F8BD48460028DDD015
:1063F00022781109685C02F095F823784046034042
:10640000E85C013402F08EF8013E002ECED1E7E7C1
:106410000424002094C1030080B500AF2023591A42
:10642000C841BD4680BDC04680B500AF0023C363F0
:10643000836343630363C362836243620362C36132
:10644000836143610361C360836043600360BD4651
:1064500080BDC046F0B55F4656464D464446F0B452
:1064600095B000AFF8638B4606684168894682683C
:106470009046C568301C0521FFF7CEFF5B461C68BF
:106480007C64F96B0B69FE4A9C18796C63182C1CB0
:106490004A46944341460A4014431B191C18484677
:1064A0001E21FFF7B9FF8246201C0521FFF7B4FF2C
:1064B000F34AAD1859464B683B63EA181018554625
:1064C00035404146B1430D434519301C1E21FFF7AD
:1064D000A3FF061C281C0521FFF79EFF5246A2437E
:1064E000331C2340134359468A68BA64E4490A1CA2
:1064F0004244B96C52181018C3189946201C1E212A
:10650000FFF78AFF041C48460521FFF785FF311C71
:10651000A943221C2A400A4390465B46D968396445
:10652000D74A8B18534418188044281C1E21FFF7A3
:1065300073FF051C40460521FFF76EFF221C4946EC
:106540008A434B462B4013439C465A461169F962D5
:10655000CB4BCA1896193618664448461E21FFF7D9
:106560005BFF8146301C0521FFF756FF2A1C414680
:106570008A434B460B4013439A465A465169B962C7
:10658000BF4BCA1814192418544440461E21FFF763
:1065900043FF8246201C0521FFF73EFF4946B143D9
:1065A000534633400B4398465A469169B44BCA1838
:1065B00055192D184544301C1E21FFF72DFF061CD0
:1065C000281C0521FFF728FF5146A143331C234017
:1065D0000B4398465A46D369A9495A184A44101899
:1065E0008044201C1E21FFF717FF041C4046052194
:1065F000FFF712FF311CA943231C2B400B43994684
:106600005A46116AB9639E4BCA1852441018814405
:10661000281C1E21FFF700FF051C48460521FFF737
:10662000FBFE221C41468A4343462B4013439C46B3
:106630005A46516A7962924BCA18961936186644BE
:1066400040461E21FFF7E8FE8046301C0521FFF77B
:10665000E3FE2A1C49468A4343460B4013439A46AD
:106660005A46916A3962864BCA1814192418544440
:1066700048461E21FFF7D0FE8246201C0521FFF769
:10668000CBFE4146B143534633400B4399465A46ED
:10669000D16AF9617A4BCA1855192D184D44301C2E
:1066A0001E21FFF7B9FE061C281C0521FFF7B4FECA
:1066B0005146A143331C23400B4399465A46116B64
:1066C0006F4BCA18424410188144201C1E21FFF74A
:1066D000A3FE041C48460521FFF79EFE311CA9437A
:1066E000231C2B400B4398465A46516B7963644BED
:1066F000CA18524410188044281C1E21FFF78CFE33
:10670000051C40460521FFF787FE221C49468A43A7
:106710004B462B4013435A46916B8A46584A111CEC
:1067200051448E193018C61848461E21FFF774FED2
:106730008146301C0521FFF76FFE2A1C43469A4311
:106740004B4641460B4013439C465A46D16BB961B8
:106750004B4BCA1810180419644440461E21FFF719
:106760005BFEF864B86B796B4840BB6C58407A6C40
:1067700050400121FFF750FE804659460864201C16
:106780000521FFF749FE43461A183D4811186B18BA
:106790004D46B543FA6C324015435D19301C1E213D
:1067A000FFF73AFE7864786A56467040396C484084
:1067B0003B6B58400121FFF72FFE061C58464664EC
:1067C000281C0521FFF728FE32182D4953184B4489
:1067D000FE6CA643786C204006439E19201C1E21A7
:1067E000FFF71AFE8246386ABC696040FA6A504078
:1067F000B96C48400121FFF70FFE041C5B4698640A
:10680000301C0521FFF708FE7A6CAA4353462B4043
:10681000134320181A494418FA6C1019C418281C7C
:106820001E21FFF7F9FD8146F86945466840BB6ABD
:106830005840396C48400121FFF7EEFD051C5A46CF
:10684000D064201C0521FFF7E7FD5146B1434B46BC
:1068500033400B4328180A4D41197A6C8818C51823
:10686000301C1E21FFF7D8FD061CA0467D645D4646
:10687000443510CD2B1C183B291C3039186801E019
:106880009979825A0A68504060402C1C383C236831
:1068900058400121FFF7C0FD041CA860786C052159
:1068A000FFF7BAFD2018E8494318444674404A46A9
:1068B00054401C19544440461E21FFF7ADFD1321DE
:1068C000F964796CB046B864A4465E463E640C1C1C
:1068D0006646AA464D4633E0BE6CB046061C51469D
:1068E0004B6804229246DA445046183851463039F3
:1068F00000680A68504058405346383B1968484081
:106900000121FFF789FD83465246906048460521E4
:10691000FFF782FD5844CC4BC018321C6A404146F8
:106920004A408318F86CC2189346281C1E21FFF7B2
:1069300073FD013CFC644C464546B046B8645E4677
:10694000534604339B46043B04CB5B4658461838F9
:10695000594630390068096848405040383B1A6849
:1069600050400121FFF758FD8146031C58468360C3
:10697000301C0521FFF750FD4844B3494218BB6C59
:10698000634040464340D1184D19A946201C1E21A2
:10699000FFF742FDFC6C013C351C4246FA64002CBA
:1069A0009AD1396CB246F8640E1CE4367E644446D3
:1069B000BE6C0D1C943508CD281C18382A1C303AA2
:1069C00000681168484058402B1C383B1A685040FA
:1069D0000121FFF721FD8046A86048460521FFF709
:1069E0001BFD41460B18994A9818FB6C33435146DE
:1069F0000B40FA6C32401343C018041950461E2154
:106A0000FFF70AFDCC46BC64B346E14680462CE065
:106A1000061C6B68251D2C1C183C291C303920686D
:106A20000A68504058402B1C383B1C6860400121CC
:106A3000FFF7F2FC041CA86050460521FFF7ECFCB0
:106A4000201882494218444634434B461C40404675
:106A50003040044314195C4448461E21FFF7DCFC17
:106A6000D146C346FE648046BC642C1C08CC211C65
:106A70001839221C303A0868116848405840231CD5
:106A8000383B1A6850400121FFF7C6FC8246A060DF
:106A9000B86C0521FFF7C0FC50446C494018FB6CF2
:106AA0004246134349460B40F96C0A401343C01851
:106AB0008246DA4448461E21FFF7AEFCBB6C99467D
:106AC000F96C8B467A6C9442A2D13B6C061C5546FD
:106AD0001C1CF0348A46C346B86C8046A946211C6B
:106AE0002039E43308681A685040231C383B1D687D
:106AF0006840211C40390A6850400121FFF78CFC96
:106B0000051C01C448460521FFF786FC2818504B98
:106B1000C118454675405A4655404D1955444046A2
:106B20001E21FFF779FC3D233B64BE647864AC46CC
:106B30004D465E46E14633E07B6C994680465246C0
:106B4000203A51460C3910680B6858405246383A82
:106B5000116848405346403B1A6850400121FFF7F6
:106B60005BFC824660605C460434F86C0521FFF7EC
:106B700053FC50443649421843467340484643400C
:106B8000D1183A6C53189B46301C1E21FFF744FC69
:106B900001353D64FD6C4E464146B9647864D94682
:106BA000201C2038211C0C3900680A685040231C26
:106BB000383B19684840221C403A1368584001216C
:106BC000FFF72AFC8046211C04318B46043901C1A1
:106BD000DA4648460521FFF71FFC40441C4A80184E
:106BE0007B6C6B40B96C4B40C2189619FE64281C34
:106BF0001E21FFF711FC3D6C01354E46BB6C3B641A
:106C0000502D99D1FC6CA446F96B0A68151C65449B
:106C1000FE6B356073681C1C4C447460B2681018BD
:106C2000B060F5687E6CAB19FC6BE3602269B96CEF
:106C30005018FD6B2861BD4615B03CBC9046994686
:106C4000A246AB46F0BDC046A1EBD96EDCBC1B8FA3
:106C5000D6C162CAF0B55F4656464D464446F0B4CA
:106C6000DBB000AF80468A46FA60AA2041007B185C
:106C7000834A191C70CA70C111CA11C15546403DE2
:106C8000A9464DD400252E1C40367E60AE423DDD27
:106C900044466319987801025A7814040C43D87852
:106CA000044319780A0614437C61391C18310435F1
:106CB0000433AE422ADD9E7834025878020414432D
:106CC000DE7834431878020614430A1C10C21C1DD7
:106CD0009E7930025E7936043043DE7906431B79B3
:106CE000180630434860A1790E0263791804064300
:106CF000E1790E432379180606435660111C0831CA
:106D00000C35231C08337A68AA42D4DCAA24660016
:106D1000B819391C1431FFF79DFBA945B3DA00E01F
:106D200000255046441B381C1430FFF77DFB002C17
:106D30003ADD631E0121194000234246505D0326BF
:106D4000B44602061420C618F05902431433DA512F
:106D50000123A34200D07CE024E099103A1C1432B5
:106D6000890040464619F05C834666469E43F00023
:106D70005E468640301C8E5830438850013399104F
:106D80008900A946C1444E46F65CB34666469E431A
:106D9000F0005E468640301C8E58304388500133E8
:106DA000A342DAD1251C00E00025AB103A1C1432B6
:106DB00099000320A843C6008023B3401D1C8858B7
:106DC00005438D50372C2DDDAA2461007818111C45
:106DD000FFF740FB381C1430FFF726FB22E0981029
:106DE00080006A1A2240D100AA267200BE1880597B
:106DF000C840F968C854581E011C8610B600B04639
:106E0000EB1A2340DE00B246AA235E00F3199C462B
:106E10004646664433685646F340FE683354431E84
:106E2000DDD20EE05246D6003E65AA235D007819F9
:106E3000391C1431FFF70EFB1323142104250324FE
:106E4000CDE7BD465BB03CBC90469946A246AB46FA
:106E5000F0BD002900D180E799103A1C1432890056
:106E600046467019C65C60469843C0008640301C98
:106E70008E58304388500133A34200D06DE791E72C
:106E800080C103004ADF704712DF7047B0B500AF22
:106E9000012200238469C56912196B418261C361B3
:106EA000BD46B0BDB0B500AF002819D0002919D03B
:106EB000002A18D08218031CC44314190125254048
:106EC0000C7804700133013193420ED10BE00C7841
:106ED0001C704D785D70023302319342F7D102E0AD
:106EE000002000E00020BD46B0BD002DEFD00D78A1
:106EF0001D70013301319342E9D1F4E7B0B500AF21
:106F0000C9B2002A0FD08218031CC44314190125EA
:106F10002C4001700133934207D104E0197059707D
:106F200002339342FAD1BD46B0BD002CF6D01970A1
:106F300001339342F2D1F6E7F0B54F464646C0B46E
:106F40008FB000AF81460D1C141C984600267E6051
:106F5000F81CFFF799FF381C0830211C1022FFF79E
:106F6000A1FF381C183041460822FFF79BFF3E6204
:106F70007E62FB78002B04D103F078F9201C03F02B
:106F8000D3F90F2D3AD94C46281C1038C106CE0F24
:106F9000FA78002A00D075E07BE0FE78002E09D157
:106FA000381C2830391C183103F080F9002807D12B
:106FB000012061E0381C0830FFF764FF00285AD137
:106FC0002068B96A484020606368FA6A5340636089
:106FD000A668386B4640A660E1687B6B5940E1606B
:106FE00010347A6810327A60103D381C0830FFF790
:106FF0004DFFFE78002E00D0A3E0A9E04C46002D06
:107000002DD0FE78002E09D1381C2830391C1831BB
:1070100003F04CF9002809D101202DE0381C08307C
:10702000FFF730FF011C0120002925D1B86A236831
:107030005840B862FE6A62685640FE62396BA068CA
:10704000414039637B6BE66873407B63201C391CCD
:1070500028312A1CFFF726FF7C6865197D604F48A0
:10706000FFF76CF9381D0221FFF77CF94C48FFF758
:1070700065F9002000E00120BD460FB00CBC904631
:107080009946F0BD381C0830FFF7FCFE002809D0F7
:10709000F1E7381C2830391C183103F007F90028B3
:1070A00000D185E72368B86A434023606168FA6AC3
:1070B00051406160A368386B4340A360E1687A6B1C
:1070C0005140E16010347B6810337B60103D381C08
:1070D0000830FFF7DBFE0F2D00D890E7002E00D11F
:1070E0005BE7FE78002E06D0381C0830FFF7CAFE9A
:1070F000002809D0BFE7381C2830391C183103F0AC
:10710000D5F8002800D153E72068B96A48402060CC
:107110006368FA6A53406360A668386B4640A660AD
:10712000E1687B6B5940E16010347A6810327A6014
:10713000103D381C0830FFF7A9FE0F2D00D92CE7B1
:107140005DE7381C0830FFF79DFE002809D092E764
:10715000381C2830391C183103F0A8F8002800D159
:1071600026E72068B96A484020606368FA6A53409D
:107170006360A668386B4640A660E1687B6B594047
:10718000E16010347A6810327A60103D381C0830A3
:10719000FFF77CFE0F2D00D9FFE630E7A4C1030006
:1071A000ACC1030080B500AFFFF7C6FEBD4680BD91
:1071B0000C4802680F210A4302600B490B4A0C4B32
:1071C0009B1A03DD043BC858D050FBDC491A094A1E
:1071D000094B9B1A02DD043BD150FCDC0748804779
:1071E000074800472405004068C40300002400202D
:1071F00004240020042400206434002011760300BD
:10720000E1BD0300FEE7FEE7FEE7FEE7FEE7C0465E
:107210002EDF70472FDF704712DF704780B500AF59
:107220000278114B1A704178597082789A70C1783F
:10723000D97002791A714179597182799A71C1793B
:10724000D971027A1A72417A5972827A9A72C17A23
:10725000D972027B1A73417B5973827B9A73C07B0C
:10726000D873BD4680BDC04638240020F0B54F46D7
:107270004646C0B4C7B000AF8146884600237A1D99
:10728000FF32136084204100CB5186246500EB510E
:1072900088267200D351381DFF30FFF7BDFF00284C
:1072A00014D13B1DFF33187800280FD0404D7E19B4
:1072B000301CFFF7ADFF002802D131780F29F7D934
:1072C000781DFF301021FFF7A5FF17E00121394C91
:1072D00021607B1DFF338A256E00B819354D802251
:1072E0005600A121C900AC59002CFCD06A581A7074
:1072F00001338342F7D101202E4B58602E4C781D6C
:10730000FF30037822785A402270457866786E40C4
:1073100066708178A3784B40A370C578E2786A40A4
:10732000E2700679217971402171437965795D4078
:1073300065718679A2797240A271C179E3794B4077
:10734000E371057A267A6E402672417A627A4A4063
:107350006272837AA57A5D40A572C67AE17A71403D
:10736000E172037B227B5A402273457B667B6E4031
:107370006673817BA37B4B40A373C07BE27B42405F
:10738000E273381C211C102200F018F8381C41460A
:1073900042464B4600F05CF8381C211C221C10238E
:1073A00000F056F8BD4647B00CBC90469946F0BD7B
:1073B0001701000000D0004038240020F0B55F46DF
:1073C00056464D464446F0B483B000AF79609446CB
:1073D00000230370437080246100C218937001334E
:1073E000C518AB7001338B42F7D1831CC61CFF3626
:1073F000B14600240025AA461E78751979680A5DF1
:10740000AD18EDB242199178197096700134644547
:1074100000DB54465E1CB0465A78551979680E5DFB
:10742000AD19EDB24619B1785970B27001346445A6
:1074300008DA08E0BD4603B03CBC90469946A24637
:10744000AB46F0BD5446434601334B45D4D1F1E73A
:10745000F0B55F4656464D464446F0B483B000AFA3
:107460009A460378994644785646002E51DD111C01
:107470009046D044D543454401222A4094460133E6
:10748000DDB24619B346B378E418E4B202193A60A3
:1074900096787E605A4696703E68B3707A68D318C4
:1074A000DEB282190E78937873400B70013141453A
:1074B0003AD12AE00135EDB242199678A419E4B226
:1074C00003197B609B789B4693707B689E705A463D
:1074D0009619F3B2C6180A78B37853400B70013589
:1074E000EDB243199E78A419E4B202199446927839
:1074F0009A7063469E709619F2B283184E789A7805
:1075000072404A7002314145D4D14D465544EBB2E8
:1075100099464E4606704470BD4603B03CBC90464A
:107520009946A246AB46F0BD6246002AC2D001355C
:10753000EDB24619B446B378E418E4B202197A60A1
:107540009678B346624696707E68B3705B44DBB251
:10755000C2180E78937873400B7001314145A9D160
:10756000D3E7C04680B500AF144B1978002001293D
:1075700022D1134A13681A071ED112480168F0225B
:107580000A4006D1104B1868F02108404342584188
:1075900012E0102A06D10C480068F0221040434245
:1075A000584109E0302A06D1074B1868F0210840FD
:1075B0004342584100E00020BD4680BDE00F00F08E
:1075C000E40F00F0E80F00F0EC0F00F080B500AF22
:1075D0000B4B1978002001290FD10A4A13681A07AA
:1075E0000BD109490A68F0231340402B05D1074805
:1075F0000068F021084043425841BD4680BDC04666
:10760000E00F00F0E40F00F0E80F00F0EC0F00F0E6
:1076100080B500AFFFF7A6FF002806D0094A0A4B45
:107620001A6080200102094A1160FFF7CFFF00288D
:1076300005D00120C123D9008022D3055850BD4672
:1076400080BDC046DFFF07C004050040186C004045
:1076500080B500AF1F23184001218140014A11600D
:10766000BD4680BD00E100E080B500AF1F2318409B
:10767000012181408023024AD150BD4680BDC046D1
:1076800000E100E080B500AF1F23184001218140D8
:10769000081C802253000249C850BD4680BDC04628
:1076A00000E100E080B500AF1F23184001218140B8
:1076B000081CC02253000249C850BD4680BDC046C8
:1076C00000E100E0F0B500AF002814DA0F2303401A
:1076D000083B9A089400114EA3195D6803221040DC
:1076E000C000FF26341C8440A54389010E4086401B
:1076F00035435D6010E08208094BC0329200D558D6
:1077000003242040C000FF24261C8640B543890185
:107710000C4084402543D550BD46F0BD18ED00E037
:1077200000E100E080B500AF00280EDA0F22024031
:10773000083A930899000B4A8B18596803221040A5
:10774000C000C1400906880F0AE08208C0329100DB
:10775000054BC95803221040C000C1400906880FDC
:10776000BD4680BD18ED00E000E100E080B500AF4F
:10777000064B5868C105CA0D0420002A04D0103AEF
:1077800050B2FFF7CFFFC0B2BD4680BD00ED00E0B4
:1077900080B500AF0323184043425841BD4680BD29
:1077A00080B582B000AF7860C046C046C046C046D3
:1077B000C046C046C046C046C046C046C046C04699
:1077C000C046C0467B68013B7B60002BECD1BD46C8
:1077D00002B080BD80B500AFA123D900034A50504C
:1077E00011200321FFF76EFFBD4680BD0010014050
:1077F00098B500AF0A4C80235802D1229100605006
:10780000C1239A00A0501120FFF74CFF1120FFF771
:107810001FFF012020602F20FFF7C2FFBD4698BD4B
:107820000010014080B500AF1120FFF71DFF084B8D
:1078300080225002D2218A009850C2218A0098509A
:10784000012058602F20FFF7ABFFBD4680BDC0462A
:107850000010014080B500AF024B034AD058BD462E
:1078600080BDC046040500000010014080B500AF97
:10787000401A0102080ABD4680BDC04680B500AF6F
:10788000A823D900014A5050BD4680BD00100140D8
:10789000F0B5474680B400AF1D4B1D68C1000A1803
:1078A00094006619B4461B4B1B68591C02D1194B36
:1078B000186029E07268DC00E618B10069184C68AD
:1078C0001E1CA24207D8A41A4C6061460B62114AE2
:1078D000106019E01E1C121B0B6A5C1C0CD0DC0033
:1078E000E1188C0029194C689442F3D3D900C918C7
:1078F00089006918A41A4C6061464A600B62F20064
:107900009619B300ED182862BD4604BC9046F0BD40
:107910005024002060240020B0B500AF1D4B1C682F
:10792000621C35D084420ED01B490968221C02E03B
:1079300098422AD01A1CD500AB189D004B191B6A1F
:107940005D1CF5D124E0231C221C13480568E100CE
:107950000C19A0002D182C6A0E490C600E48056801
:10796000DC00E318990068184468036AD1008A189B
:10797000900029180B625A1C0AD0DA00D31898001C
:107980002D1869680C196C6002E09342DDD0E5E7C0
:10799000BD46B0BD602400205024002080B500AF5B
:1079A0001120FFF76FFEBD4680BDC04680B500AF19
:1079B0001420FFF767FEBD4680BDC04680B500AF0E
:1079C000114B1978114A13788B4217D00131CBB281
:1079D000022B02D00C4A137002E000210A4B1970EE
:1079E000094A11788A000A4BD25802600948016896
:1079F00053181A02110A0160012002E000210160FF
:107A00000020BD4680BDC0465C2400205D240020CF
:107A10006424002048240020F0B55F4656464D46B9
:107A20004446F0B483B000AF2E4B19688A462E4806
:107A30000478013CE4B22D4A90460025A94640E076
:107A4000E000424615682D182E7835E0710088193F
:107A5000C2006B6898180136F2B2AE78B31A591E9C
:107A60008B415E4216400178CAB2022A06D0032A30
:107A700022D11C4B1B685A1C11D11DE04068C1006B
:107A80000B189A001A490B689A189346117D002921
:107A900012D0FFF741FF48465B4618750CE01449C9
:107AA0000A68D800C318990050184B460375036A3A
:107AB000591CF6D10B4A13606B78B342C6D1013C16
:107AC000E4B2FF2CBCD1074E33685146581A431E0E
:107AD0009841BD4603B03CBC90469946A246AB4691
:107AE000F0BDC0466024002054240020582400200B
:107AF00050240020F0B55F4656464D464446F0B44B
:107B000000AF8C4690461A4B19688B46194A146888
:107B10000026002220E0E5002B199B005B445968F9
:107B2000884204D2134A1460081A586018E0401AB8
:107B300076185A601A751D6AA9461D69002D0AD06B
:107B4000B246E24451460902090A9960DD604546A1
:107B5000296819622C604C46631CDCD1054804601E
:107B6000BD463CBC90469946A246AB46F0BDC046D9
:107B70005024002060240020F0B55F4656464D4654
:107B80004446F0B483B000AF051C424B186838601F
:107B900041490A78013AD4B27C60404EB146404B2C
:107BA0009B464048824664E07E68F3004846016890
:107BB000CC18A04652E0EE007419A0005B4619688C
:107BC0000C182E1C256A23E07400A219D30040462D
:107BD0004168CA180136F6B2444606708378B3424B
:107BE00001D10021217056682D4C21681378012B9A
:107BF00034D1F0008419A300CC18217D00292DD1A7
:107C00009068A060D368E360116921615269E26104
:107C1000A36852461168581A0202120A2248824288
:107C200006D8181CFFF722FEE168401860600BE0E0
:107C3000081C191CFFF71AFEE168884202D20A1AD2
:107C4000626001E0002363600023A360E36001221F
:107C5000227551422162301CFFF71AFE6A1CAAD11C
:107C6000424616785378B342AED178680138C1B233
:107C700079607968FF2997D1064D2C683A68A01A77
:107C8000431E9841BD4603B03CBC90469946A2466F
:107C9000AB46F0BD6024002054240020582400206E
:107CA0005024002048240020FEFF7F00F8B54F46F6
:107CB0004646C0B400AF80461D4B1868421C30D009
:107CC0001C4A1468C1000D18AE00A3195E68FFF7C6
:107CD000C1FD041C18480568201C291CFFF7C6FDBF
:107CE000033081464246531C01D1FFF781FD4946CE
:107CF000B14200D2311C4B191E02350A281CFFF775
:107D0000BDFDFFF7A7FD211CFFF7B0FD061C281CD9
:107D1000211CFFF7ABFD0336864204D9FFF73EFE78
:107D200001E0FFF77FFDBD460CBC90469946F8BDCB
:107D3000602400205024002048240020F0B547464D
:107D400080B482B000AF01235842786012490A68BB
:107D50009046124C2668381CFFF730FE041CFFF7D3
:107D60005BFE051C002C08D0386841463A1DFFF721
:107D7000C1FE7868FFF700FF06E07868FFF7FCFEB9
:107D8000002801D1002D02D0301CFFF78FFFBD4627
:107D900002B004BC9046F0BD4824002060240020BE
:107DA00080B500AF4170BD4680BDC04690B500AF04
:107DB000437801338278D21A541EA24154422340A0
:107DC00002789A4207D00B6041784B005C18E200C1
:107DD0004068801800E00020BD4690BDF0B54F46D9
:107DE0004646C0B483B000AF894690461E1CC00012
:107DF000114B1D682D18281C391DFFF7D7FF041CD7
:107E00000420002C12D0012121704A466260FFF745
:107E100021FDA0604046E0602661BE6A6661281CC4
:107E20007968FFF7BDFFFFF7C1FD0020BD4603B035
:107E30000CBC90469946F0BD58240020B0B582B0E5
:107E400000AF0D1CC0000C4B1C682418201C391DF1
:107E5000FFF7ACFF011C0420002909D002220A70A0
:107E60004D60201C7968FFF79BFFFFF79FFD002006
:107E7000BD4602B0B0BDC0465824002080B500AF5A
:107E8000FFF774FC012805D0033843424341022028
:107E9000C01A00E00020BD4680BDC04680B500AFDE
:107EA0000A4B1B68002B0BD08269C169101C9847D4
:107EB000002809D0AA235900054AFEF7A9F903E0D2
:107EC000C2698169101C8847BD4680BD4C240020D2
:107ED000B8C10300F0B5474680B400AF224B1C6820
:107EE000621C3CD0FFF7B6FC20490968FFF7BEFCD6
:107EF000051CE000021996001D4B1C68A019426881
:107F0000954214D300261A49884608E0E000021979
:107F1000910043461C6860184268AA4208D8AD1A0E
:107F2000B618046AFFF7BAFF621CEFD100E0002622
:107F3000104D287810490B78834209D10130C4B222
:107F4000022C02D00C4A147002E000250A48057089
:107F500009490B789C00094AA650FFF727FDBD464A
:107F600004BC9046F0BDC046602400204824002098
:107F7000502400205C2400205D2400206424002084
:107F800080B500AF0B4B0022A02148001A50A2215F
:107F900048001A50A42148001A50A62148001A503F
:107FA000802148001A50822148001A50FFF792FFA2
:107FB000BD4680BD0010014080B500AFFFF7BEFE9A
:107FC000BD4680BDF8B55F4656464D464446F0B4C2
:107FD00000AF8346894692469846181CFFF7D8FBA7
:107FE0000721002865D04246002A62D0FFF71AFC1C
:107FF000384BBC6A1C60384849460170374D4646CC
:108000002E604A46002A1BDD4046D3004B449D00AB
:108010000024291C24398E08314A56430123334059
:108020000470047524212430A9424AD108E0047068
:10803000047524300470047548312430A942F6D107
:108040004846C5004D44AE0046440324254A1470FA
:10805000254B1E60301C183051464D005544EB0036
:10806000002232707270B1707060C0183272727219
:10807000B172F06032747274B174C118716101260A
:1080800075421A4B1D601A4C22701A480270142057
:10809000FFF708FB14200321FFF714FB1420FFF760
:1080A000D7FA5846FFF796FBFFF7D4FB124A106049
:1080B0000021081CBD463CBC90469946A246AB46F2
:1080C000F8BD002BB3D00470047524312430A942CC
:1080D000ADD1B5E74C2400205E24002050240020C0
:1080E000398EE338542400205824002060240020D6
:1080F0005C2400205D24002048240020F0B5574671
:108100004E464546E0B400AF82468C469046284B2A
:108110001D68002D2BD0002A2BD000282BD02548FD
:108120000178002929DD2C78002C15D109E02A1CC2
:10813000251C231C243324204042C05C00282DD160
:1081400000E000220121297066466E704046A86159
:1081500055462A60002011E02C1C24340026C80754
:1081600012D50136351E8D42E1DB042006E00820E1
:1081700004E0072002E0072000E00420BD461CBC0C
:1081800090469946A246F0BD0136321C251C243487
:10819000231C243B18780028E3D1D3E70136321C96
:1081A0001D1C1C1C24341B78002BDAD1CAE7C046E6
:1081B000502400205E240020F0B5474680B482B0F1
:1081C00002AF041C0E1C9046134B196800291ED0E8
:1081D000124A15780720A5421AD9042E18D9E000B2
:1081E00003199A0089180D780820012D10D14878BC
:1081F000012801D0002500E0351CFFF73FFE434673
:108200000093211C321C2B1CFFF7E8FD00E0082026
:10821000BD4604BC9046F0BD502400205E240020E2
:1082200098B500AF041C0C4B1968002911D00B4AFB
:1082300013780720A3420DD9E00002199300595C7E
:108240000820012906D1FFF719FE211CFFF7F6FDD2
:1082500000E00820BD4698BD502400205E24002088
:1082600090B500AF031CC46880689A88241A042063
:10827000944207D8D86802401C68A154D9680131DB
:10828000D9600020BD4690BD90B500AF031CC46806
:1082900082680520944209D098689C8804401A6836
:1082A000105D08709968013199600020BD4690BD4D
:1082B00080B500AF0022054B1A7005480121C1604E
:1082C0004160A023D9004250BD4680BD80240020DB
:1082D0000020004080B500AF074B1878012802D07D
:1082E000022806D102E0FFF7E3FF02E00322024981
:1082F0000A70BD4680BDC0468024002080B500AF16
:10830000FFF7D6FFBD4680BD80B582B000AF012328
:10831000064AD3600648037003213970054B1A687A
:10832000381C9047BD4602B080BDC04600200040CA
:10833000802400206C24002080B582B000AF104B58
:108340001878022802D001220E498A600E48F91DD1
:10835000FFF79AFF002802D0FFF7D6FF0DE0094B88
:108360008022C22081005A50F879084958500220D2
:1083700003490870C12081005A50BD4602B080BD3B
:108380008024002000200040702400201C050000F4
:1083900080B500AF0F4B1878002802D0032816D103
:1083A00012E00D4B0420A022D1005850012018608B
:1083B0000A4BDA6899688A4202D0FFF7BDFF06E0EF
:1083C0000120044B187002E0022202490A70BD46E7
:1083D00080BDC04680240020002000407024002082
:1083E00080B500AF034B1878012801D1FFF7A4FF37
:1083F000BD4680BD8024002080B500AF054BDA6803
:108400009868824202D0FFF797FF01E0FFF77CFFF8
:10841000BD4680BD7024002080B500AF074B1878A2
:10842000002808D0022804D9032804D1FFF740FF10
:1084300001E0FFF7E1FFBD4680BDC046802400207B
:1084400080B500AF042811D88000094B19588F4619
:10845000FFF740FF0AE0FFF79BFF07E0FFF7DCFFB5
:1084600004E0FFF7BDFF01E0FFF748FFBD4680BD18
:10847000ECC1030080B582B000AF84235800264AC7
:108480001158002921D0131C00208422510058507B
:10849000A320C2009B58D9B22048FFF7E1FE002874
:1084A00007D001233B7078601D490A68381C90474B
:1084B0000BE01A49C8688A68831A012B05D100218C
:1084C000397017480268381C90478E204300124AC2
:1084D000D158002906D000208E2359005050032087
:1084E000FFF7AEFF922250000B490B58002B0FD024
:1084F000081C002192225300C1509021CB00C25889
:10850000C250022038707A6005490B68381C9847C1
:10851000BD4602B080BDC04600200040842400203B
:108520006C24002098B500AF011C0548FFF798FEA9
:10853000041C0220FFF784FF201CBD4698BDC046E6
:1085400070240020F0B500AF041C002A01D0108870
:1085500000E02E4800293FD0231C6118E5436D1828
:10856000012215400602FF22000A0643B4B21E781B
:108570007440E0B20609744020034440A4B2161CC3
:1085800026407001604001338B4227D124E006026F
:10859000000A10400643B4B21D786C40E6B23009C0
:1085A000444025036C40A4B2161C26407001604074
:1085B0000402050A15402C43A6B258784640F4B28E
:1085C00025096E4030034640B6B2141C34406001A9
:1085D000704002338B42DAD1BD46F0BD002DD6D0BB
:1085E0000502000A10400543ACB21E787440E5B2A3
:1085F0002809444026037440A4B2151C2540680194
:10860000604001338B42C2D1E6E7C046FFFF000065
:1086100080B500AF0022074B1A7007480749016078
:10862000102343608260C260026142618261002067
:10863000BD4680BDF0260020D426002094240020D2
:1086400090B500AF002921D000230B60114A546877
:108650000423002C1BD00C23202818D80D4B013CE0
:108660005C60D8680130D8601A69D400A018800016
:108670001C6820180860012191409C692143996180
:1086800001320F2002401A61002300E00E23181C63
:10869000BD4690BDD4260020F0B500AF011C254B8F
:1086A0009C680420002C40D0224A5069051B0F26EC
:1086B0002E401468331C0F25DA00D2189200A2183D
:1086C000914211D11B4C01219940A0694140A16107
:1086D0000020184DAC690122B240144225D1154941
:1086E0008A68002A06D120E001332B409842E3D16A
:1086F0001020EEE70F4D69680131013A01330F2672
:10870000334001259D402C4203D00A4CA260616099
:108710000BE0D3070BD44E1C002A03D1054DAA60F1
:10872000696002E0023A711CF5E7BD46F0BD013A0E
:108730000131F0E7D426002080B500AF064A136966
:10874000013B0F210B401268D900CB189900521839
:1087500010620020BD4680BDD4260020B0B500AF19
:10876000031E1AD000291AD00E4AD4680420002C07
:1087700016D0013CD4609068013090605069C5000B
:108780002C18A40015682C191C60236A0B6001309A
:108790000F2108405061002002E00E2000E00E2072
:1087A000BD46B0BDD426002072DF704779DF704728
:1087B0007DDF704764DF704780B500AF0870000A46
:1087C00048700220BD4680BDF0B54F464646C0B455
:1087D00083B000AF061C8846151C1478A31C0C201F
:1087E0001F2B29DC717802311F2925DC1D20021B7B
:1087F00093B29946FB80A01C4044B91DFFF7D8FFF7
:10880000002819D13278022A03D1FB880922994520
:1088100007D27378002B02D00822994501D2FB8839
:108820000822DBB2591C464631550134E4B23255B8
:108830002A7802329B182B70BD4603B00CBC9046C0
:108840009946F0BDF0B5474680B482B000AF061C33
:108850000D1C0B7804330C241F2B15DCB81DFFF7FF
:10886000A5FF041E10D1287803223254411CCBB23C
:108870001922F2540230C1B288462970F888711862
:10888000FFF79AFF40442870201CBD4602B004BC8C
:108890009046F0BDB0B500AF051C1378DC1C0C2071
:1088A0001F2C0BDC0220C8545C1CE0B20A240C54C0
:1088B000981CC4B20D55033313700020BD46B0BDE3
:1088C000F0B55F4656464D464446F0B485B000AF1D
:1088D000061C796091469B46B86B804602783A60E8
:1088E0003388002B4BDD0024A2460024A0007168D1
:1088F0000918381C0C300422FEF7D4FA381C0C304E
:10890000391C0B310022FFF755FF051E47D1FA7ABB
:108910004A451DD15346002B3BD132E0581CC2B210
:1089200078685946885402334246137041460A78A3
:108930005A44381C0C30391C0B31FFF73BFF002820
:108940000BD140460278FB7AD11801700120824693
:1089500001343288A242C9DC05E0051C1FE00C2569
:108960001DE00C251BE05446002C18D03E68F14356
:10897000434618780C185E463A68B4540FE0002558
:108980000DE04046037849465A1802321F2AC5DDD9
:10899000E5E74346187848441F28C7DDE1E7281C6F
:1089A000BD4605B03CBC90469946A246AB46F0BDDC
:1089B000F0B583B002AF051C161C1C1CBB690093EC
:1089C0000222231CFFF77CFF002807D1B869009022
:1089D000281C311C1022231CFFF772FFBD4601B07A
:1089E000F0BDC04690B500AF021C03880720052BE0
:1089F0001AD90E495C18A4B20D498C4214D9528878
:108A0000052A11D9094C11198CB209498C420BD98C
:108A1000084CA34205D0A24205D09A429B4118407F
:108A200002E0002000E00020BD4690BD7FF3FFFF84
:108A30007DF30000FFFF0000F8B54F464646C0B486
:108A400000AF80468946151C1678B31D0C241F2BD9
:108A50001DD8FFF7C7FF041E19D1052049468855C8
:108A6000721CD3B21220C8540236F6B22E7042469F
:108A700010888919FFF7A0FE8119CEB22E704346E7
:108A800058884A469119FFF797FE30182870201C25
:108A9000BD460CBC90469946F8BDC04680B500AFB7
:108AA000031C82880720002A09D09968002903D076
:108AB0000B785A0702D402E0072000E00020BD46F0
:108AC00080BDC04680B500AF8388002B01D0072051
:108AD00000E00020BD4680BDF0B5474680B400AF41
:108AE000041C1D1C406800281DD01B782688B04639
:108AF000981C8446C4440C2066461F2E14DC404655
:108B00000130D0545E1CF0B211540233D9B2297036
:108B1000501822886168FEF7C5F924782A7813195D
:108B20002B70002000E00720BD4604BC9046F0BD3D
:108B3000F0B5474680B400AF041C8846151C027986
:108B40002B78991C961CF0B209180C201F2922DCE6
:108B500003324646F2545A1CD0B2FF21315402333C
:108B6000DEB22E70208843469919FFF725FE821940
:108B7000D6B22E70A2880020002A0CD0A16807204F
:108B8000002908D040468019FEF78CF9247929780D
:108B90000B192B700020BD4604BC9046F0BDC046AA
:108BA000F8B55F4656464D464446F0B400AF82469F
:108BB0008946161C006B002838D034235146CA5C05
:108BC000002A35D000241625AB4660000319990011
:108BD0005246156B6D183378297903314846C154D4
:108BE0005A1CD2B2594681540233DBB298463370D4
:108BF000288849464144FFF7DFFD4044C0B2307049
:108C0000AA88002A09D0A968002913D04844FEF791
:108C100049F92D793078411931700134E4B2534665
:108C200034229D5CA542D0D8002004E0072002E059
:108C3000002000E00720BD463CBC90469946A24675
:108C4000AB46F8BDF0B583B002AF041C0E1C151C7A
:108C50000023137001780020002905D0201C311C4E
:108C6000FFF7B2FD002862D1A278002A05D0301C9F
:108C7000291CFFF7E7FD002859D1A388002B07D056
:108C8000201D0121321C2B1CFFF726FF00284ED18E
:108C9000E168002907D000200856311C2A1CFFF784
:108CA000F9FD002843D1228A002A09D0201C103067
:108CB000009502210622331CFFF77AFE002836D1E8
:108CC000238B002B09D0201C18300095032107228C
:108CD000331CFFF76DFE002829D1218C002909D013
:108CE000201C2030009514211522331CFFF760FE54
:108CF00000281CD1A26A002A06D0101C311C2A1C94
:108D0000FFF79AFE002812D1E36A002B06D0181C48
:108D1000311C2A1CFFF70CFF002808D13421625CAB
:108D2000002A04D0201C311C2A1CFFF739FFBD4645
:108D300001B0F0BDB0B592B000AF041C0D1C002313
:108D40003A1C47321370013A137000280FD0FFF716
:108D5000A5FE002826D1201C391C24313A1C47329C
:108D6000FFF770FF00281DD13C1C243400E00024D4
:108D7000002D0ED0281CFFF7A5FE002812D1281CBC
:108D8000391D3A1C4632FFF75DFF3A1D002801D01D
:108D900008E00022381C4730017801380378201C95
:108DA000FFF702FDBD4612B0B0BDC04675DF70478B
:108DB00076DF70477ADF70477BDF704780B500AFA2
:108DC000427811020378081C1843BD4680BDC04696
:108DD00080B500AFFFF7F2FF01231840BD4680BD0C
:108DE00080B500AF4388054A11880020994203D816
:108DF000024A518899424041BD4680BD2427002047
:108E000080B582B000AF1A4B18881A4988422CD01E
:108E1000194A13780133D9B21170184A137B8B4267
:108E20000AD31749FFF7C2FF00281ED0134B9969D8
:108E300000291AD0884718E000210F4A11700F4B03
:108E4000197C002909D03B21FFF7B2FF002804D08C
:108E50000A4A9369002B00D09847084841690029C5
:108E600003D000223A71381D8847BD4602B080BD4C
:108E700020270020FFFF0000FC2600200027002004
:108E80002427002080B582B000AF1B48FFF7A8FF61
:108E9000002822D119480378002B08D018484169CE
:108EA000002922D000223A71381D88471DE015495B
:108EB0000A78002A02D1124B596801E010488168F3
:108EC000114A10680022FFF777F900280DD00C49ED
:108ED0008B69002B09D0984707E0094B5969002995
:108EE00003D001223A71381D88470020034B1870C7
:108EF000BD4602B080BDC046F4260020F126002009
:108F000000270020FC2600201C27002080B500AF91
:108F10008288094B1A80011C0E3108480822FDF78F
:108F2000C1FF002006490870064AD389002B01D1F1
:108F3000FFF7A8FFBD4680BD20270020F4260020B3
:108F4000FC2600200027002080B500AF811D0448CA
:108F50000822FDF7A7FFFFF795FFBD4680BDC0467D
:108F6000F426002080B500AF01225042084B188043
:108F70000021084A117008480068FFF751F90028DD
:108F800004D0064B9969002900D08847BD4680BDB2
:108F900020270020FC2600201C270020002700207E
:108FA00080B500AFC2880E4BD9898A4215D1C28BD9
:108FB000022A12D12030FFF70BFF002802D0FFF762
:108FC00061FF0AE007480068FFF72AF9002804D08B
:108FD000034B9969002900D08847BD4680BDC04633
:108FE000002700201C270020F8B500AF16490B1CF5
:108FF000021C70CA70C3191C70CA70C114680C605E
:109000000025124E3570016800290AD0104C201C32
:109010000822FDF747FF201CFFF7CCFE002805D0F3
:1090200010E00B48FFF7C8FE00280BD10120424298
:10903000084B1A800021084D297008480021084A71
:10904000FFF75CF8BD46F8BD00270020F1260020A0
:109050002427002020270020FC2600201C27002099
:10906000018E030080B500AF024B1868FFF7D8F8F7
:10907000BD4680BD1C27002080B500AF0388112BA2
:109080000BD002D8102B10D104E0122B0BD0502B98
:109090000BD105E0FFF73AFF07E0FFF763FF04E0BD
:1090A000FFF77EFF01E0FFF74FFFBD4680BDC046E2
:1090B00080B500AF054B1878012250401870044964
:1090C0000B68002B00D09847BD4680BD302700209C
:1090D0002C27002080B582B000AF7860C046C04623
:1090E000C046C046C046C046C046C046C046C04650
:1090F000C046C046C046C0467B68013B7B60002B33
:10910000ECD1BD4602B080BD90B583B000AF7860B1
:109110007B68002B09D0064C786801387860201CE9
:10912000FFF7D8FF79680029F6D1BD4603B090BD9E
:10913000E703000080B500AF00280EDA0F220240DE
:10914000083A930899000B4A8B185968032210407B
:10915000C000C1400906880F0AE08208C0329100B1
:10916000054BC95803221040C000C1400906880FB2
:10917000BD4680BD18ED00E000E100E02BDF704748
:109180002CDF704780B500AF064B5868C105CA0D8B
:109190000420002A04D0103A50B2FFF7CBFFC0B22F
:1091A000BD4680BD00ED00E080B500AF0323184050
:1091B00043425841BD4680BD80B500AF044B1A887C
:1091C0000021824201D90130C1B2081CBD4680BDD8
:1091D00040270020F8B54F464646C0B400AF814650
:1091E0008846161C114B1D7811490C780520A542A4
:1091F00017D00C1C0D780878FFF7DEFF20700D48A3
:1092000003886B430C4A1168CC1848460460ED0093
:109210000A4B1A6851198C88404604800D683560E5
:109220000020BD460CBC90469946F8BD3F27002063
:109230003E2700203C27002038270020342700202C
:10924000F8B500AF061C0D1C141C101CFFF7ACFF7A
:10925000021C0720002A11D0094B1C60681CC100A9
:109260008AB2A418074B1C60002007490870074AFF
:109270001070074C2680074E35800020BD46F8BD93
:1092800034270020382700203F2700203E270020D9
:109290003C27002040270020F0B557464E46454663
:1092A000E0B482B000AF061C0C1C9046304B1D8809
:1092B00009208D4255D30020F871FFF763FF051E8A
:1092C000012D0CD0F81DFFF759FF022801D172B60D
:1092D00005E0002803D05921264AFCF799FF2649CA
:1092E0000878FFF769FF254A1378984209D0224988
:1092F00089460A7892460878FFF75EFF4B46187059
:1093000001E01F488246012D0BD062B6F879FFF7C5
:1093100037FF022805D0002803D06121154AFCF749
:1093200077FF0420164DAA451BD05046C100154AB0
:1093300013685D1840462860002E0FD0002C0DD019
:109340000B490B88524653430F480168C818311C1B
:10935000221CFDF7A7FDAC80002002E00026AE80B5
:109360000020BD4602B01CBC90469946A246F0BD06
:109370003C27002000C203003F2700203E2700209A
:10938000FFFF0000342700203827002080B584B07C
:1093900000AF03E07989F8687B689847381C0C3087
:1093A000391C0A313A1DFFF715FF0028F2D0BD46DF
:1093B00004B080BDF0B55F4656464D464446F0B415
:1093C00083B000AF002301229346A024E205284D7C
:1093D000AC46C026B402A1468025AE02B0465C462B
:1093E0009C40214215D0C568254203D12C43C4605E
:1093F000C24602E0A543C560CA46E02674001D19B6
:10940000AC00A65865462E40A650A65855462E4399
:10941000A65001331D1C5C469C40214223D007E02E
:10942000BD4603B03CBC90469946A246AB46F0BD53
:10943000C66826420DD111E0C135FF35AD00AC58EC
:10944000261C64462640AE50AE587C683443AC506F
:1094500009E0A643C6604E467E60EDE73443C46033
:1094600044467C60E8E70133202BB8D1D8E7C046FA
:10947000FFFFFCFFF0B55F4656464D464446F0B44C
:1094800083B000AFA223D800A022D1050E5800243B
:10949000BE256B002848C450284A1178002942D0C4
:1094A0000024274DAA4601239B4626488146524662
:1094B00011685D46A5404B46186828422DD0A20091
:1094C0001519AB00CD18E8687040296881438846BB
:1094D000281CFFF76FFFA221CB00A022D005C158A6
:1094E00071400DD00E43EB6873402A689A437A604E
:1094F000281C111CFFF75EFF41467868014388462F
:10950000A96843461940B143404630406A6810405C
:10951000031C0B4301D02D69A8470134E4B207496D
:109520000878A042C3D8BD4603B03CBC90469946DB
:10953000A246AB46F0BDC046006000404227002076
:10954000482700204427002051DF704750DF704734
:1095500080B500AF0323184043425841BD4680BD4B
:1095600080B500AF43001818C100064A5018002308
:10957000037183600421016143618361C360BD465F
:1095800080BDC0464C27002098B500AF00230A4A92
:1095900013600A4803700A490B704B708B700024EB
:1095A000201CFFF7DDFF0134201CFFF7D9FF013439
:1095B000282CF5D1BD4698BD742B0020712B0020BE
:1095C0004C270020F0B583B002AF021C10490B7885
:1095D0005C00E018C5004E1931793469052C02D1C0
:1095E0000C48066804E0A0000519AE000A4C365984
:1095F000074D5C00E018C00028181030E318DC00AC
:109600002D19AB69AC680094B047BD4601B0F0BD00
:109610004C270020682B0020102B0020F0B5474677
:1096200080B400AF8046151C1E1C614C20780028B9
:109630000AD1181C104303D102205D4C207021E098
:1096400001225B4B1A7006E0062800D9ABE08200CD
:10965000584B9C58A7468024660575693069336964
:1096600032690404200C68431E04350C694393B22C
:109670009A08FFF769FF002800D095E002214C4AC4
:10968000117091E0081CFFF761FF002800D08BE00B
:10969000002D11D1002E0BD142461478042C03D199
:1096A0000721434B19707FE00526414D2E707BE06A
:1096B00004213F4B197077E003263D4D2E7073E077
:1096C000802044052069626923690404200C484312
:1096D0001904090C51432A1CFFF736FF002863D1F7
:1096E000002E0BD142461378042B03D10626304DB1
:1096F0002E7059E005242E490C7055E004262C4D9F
:109700002E7051E0802043051869AD004446626820
:109710005C691B690004000C4843811848191B044C
:10972000190C61438A185119321CFFF70DFF0028EC
:109730003AD146463578042D03D106211C4A1170D2
:1097400032E005241A4B1C702EE08020420513697C
:10975000AC001804020C51436018434659695C6818
:10976000A208FFF7F1FE00281ED1354303D10725DB
:109770000F4A157018E006260D490E7014E080217E
:109780004D056E6928692A690304180C7043140496
:10979000210C02F0DDFBFFF7D9FE002804D10721E0
:1097A000034D297000E00320BD4604BC9046F0BD87
:1097B000712B002038C20300F8B500AF434A13787C
:1097C0005900C818C4001619341D25693279D3B25E
:1097D000042B1AD0052B53D00F20022B6ED13C48FE
:1097E0000668B3026268D61A6169C918A4682D199F
:1097F000E818384B9E4203D8B208FFF7A5FE5DE09B
:1098000080225200FFF7A0FE58E0E26891008B181A
:109810009800314E33189868D9685E68AE4203D11B
:1098200041436368994201D0052A0DD18024610526
:109830000A691304190C281C02F08AFB244D2E68B7
:109840008019FFF783FE39E0802256053069010454
:10985000090C281C02F07CFB011C326933691604D8
:10986000300C48432A1A92084E1C1B041B0C7343ED
:1098700060682D185E1BB308201CFFF7CFFE1DE0AB
:109880008020460531690B04190C281C02F060FB8E
:10989000011CA268AD183069366903041A0C4A43EA
:1098A000A81A8208481C3604330C434360682D18FC
:1098B0005E1BB308201CFFF7B1FEFFE7002802D1B2
:1098C000012402498C70BD46F8BDC0464C270020DB
:1098D000742B0020FF030000102B0020F0B547463A
:1098E00080B400AF061C8C46174C617804202829F0
:1098F00026D0154805784C19E1B2272901D9283915
:10990000C9B2114D48004418E1006C182671A261DB
:10991000221C1032604642C842C2A360BB69E360A9
:10992000AE780020002E07D1FFF746FF051C113D41
:109930006A1E954169420840034C627801326270A8
:10994000BD4604BC9046F0BD4C27002098B500AF42
:10995000074B58780024002807D0FFF72DFF041E7E
:1099600003D0112801D0FFF72DFE201CBD4698BD65
:109970004C270020B0B500AF464B9978002900D1A4
:1099800085E00022434CA270434D2B78082B0ED16A
:10999000022802D1404D2A7002E000223F490A709D
:1099A000FFF7D4FF002872D0FFF70CFE6FE002280B
:1099B00002D003286BD15CE036490A785000841845
:1099C000E5004A19141D364908680130086012790B
:1099D000022A04D181026568A9424ED205E0052A17
:1099E00003D1072B4CD0002448E0042A4BD1072B8D
:1099F00009D080026268904209D3002B0CD0002568
:109A00000023002406E001250023002402E00025B5
:109A100000230024002103E000250023002401216D
:109A2000002B05D1002D03D1002901D1002C19D024
:109A30000025194B1D700020FFF7C4FD154C207840
:109A4000FFF78EFD164805606278013A6270217852
:109A50004D1CECB2272C02D80E4B1C7002E02739AB
:109A60000C480170FFF772FF002810D0FFF7AAFD25
:109A70000DE00D20FFF7A6FD09E00124002304E01E
:109A80000123002401E0002300240025C2E7BD4695
:109A9000B0BDC0464C270020712B0020702B002049
:109AA000742B002080B500AFFFF76EFD0023124A33
:109AB0001360FC218802114A106011490B601148A3
:109AC000036083600361C3604361C36143620362F7
:109AD0008362036383634363C3634364C3648364D4
:109AE000094A136093800121084B1970084800222D
:109AF00002700020BD4680BD602B0020642B00203A
:109B0000742B0020102B0020682B0020702B0020CD
:109B1000712B0020F0B500AF344B1A780823002ACF
:109B200061D000285AD000295AD00468002C59D09E
:109B3000426880256E0533699CB20723944252D354
:109B4000032A50D98468002C4DD0294D2D688026D9
:109B500073055E691B69544364191B041B0C5E4347
:109B60000723B4423FD894073DD1224A1468042306
:109B70009C4238D00C604D601F4E14216143731815
:109B80005D6005688D5146689E608268DA60724348
:109B900017480068002180235B050E1C013189B243
:109BA0001D69ADB2954204D21D692D042D0C521BC6
:109BB00000E0321C1D692D042D0C40191D69ADB249
:109BC0009542EBD90A4B1860142666430A4A90194D
:109BD0000161013407490C60002304E00E2302E018
:109BE0000E2300E00E23181CBD46F0BD702B002094
:109BF000642B0020602B0020102B0020F0B557466E
:109C00004E464546E0B482B002AF061C88469146F7
:109C10009A46284C25780820002D45D000293ED0B2
:109C2000002E3ED033680720032B3DD89900CA1878
:109C30009400214D6159002935D07568231C1E4CB4
:109C4000E3189A68D96851435C680B199D422BD27E
:109C50004946002928D04A4526D3544653464B440A
:109C60009A4221D34046FFF773FC021C1020002AC1
:109C70001AD05046FFF76CFC011C1020002913D0AD
:109C8000281CFFF765FC051C1020002D0CD000944B
:109C90000220311C42464B46FFF720FE04E00E2016
:109CA00002E00E2000E00720BD461CBC904699460D
:109CB000A246F0BD702B0020102B0020F8B54F46B7
:109CC0004646C0B400AF061C90469946274C2578FE
:109CD0000820002D44D000293DD0002E3DD00B6837
:109CE0000720032B3CD89800C2189400204D6059DF
:109CF000002834D04D681E4A1419A268E068504309
:109D00006168431807209D422AD24446002C27D080
:109D1000424525D34B4643449A4221D3301CFFF79A
:109D200017FC021C1020002A1AD04846FFF710FC2E
:109D3000041C1020002C13D0281CFFF709FC011C68
:109D4000102000290CD048464119301C4246FDF72E
:109D5000A9F8002004E00E2002E00E2000E0072019
:109D6000BD460CBC90469946F8BDC046702B0020FD
:109D7000102B0020F0B54F464646C0B483B002AF6A
:109D8000051C0E1C1F4A14780820002C34D0002D0E
:109D90002FD02B680720032B2ED89900CA189100CA
:109DA000194C0A59002A26D06C680B1C1649CB188E
:109DB0005A68914699688846DB684B434B449C42FD
:109DC0001AD2201CFFF7C4FB021C1020002A13D05B
:109DD0004846201A414602F0FFF8072000290BD11F
:109DE000002400940420291C0022331CFFF776FD78
:109DF00002E00E2000E00720BD4601B00CBC9046FA
:109E00009946F0BD702B0020102B002080B500AFCC
:109E10000F4B1A780823002A17D0002810D00029E9
:109E200010D00368002B0FD00A4A12680423002ABE
:109E30000BD105230B60006806490860002304E08D
:109E40000E2302E00E2300E00E23181CBD4680BD49
:109E5000702B0020682B0020F0B557464E46454633
:109E6000E0B482B002AF061C884692469946194C6F
:109E700025780820002D27D0002920D0002E20D0C2
:109E800007203368052B1FD113480268002A1AD017
:109E90004046FFF75DFB041C1020002C14D0484600
:109EA000FFF756FB051C1020002D0DD049460091F0
:109EB0000220311C42465346FFF710FD04E00E20FD
:109EC00002E00E2000E00720BD461CBC90469946EB
:109ED000A246F0BD702B0020682B002090B583B007
:109EE00002AF041C0B1C0D4A11780820002911D068
:109EF000002C0ED007202268052A0BD108490A68D9
:109F0000002A07D0002200920420211CFFF7E6FC63
:109F100000E00E20BD4601B090BDC046702B002071
:109F2000682B002023DF70474EDF704710DF70473B
:109F300080B500AF0323184043425841BD4680BD61
:109F400060DF7047C1DF704780B500AF081C111C8F
:109F5000FCF7B2F9BD4680BDF0B557464E464546C2
:109F6000E0B482B000AF354B187800285ED0344999
:109F70000C6863425C41334A15686B425D41324E66
:109F8000366873425E41012399462D488246002C73
:109F900011D1381DFFF7C8FF05280BD0002804D0C9
:109FA00069212A4AFCF734F905E0786851460A68C5
:109FB000904700E04C46002D18D1254B1888B880FA
:109FC00024490A689046101C391DFFF7B9FF05287F
:109FD0000BD0002804D080211C4AFCF719F905E0B9
:109FE000184B19684046884700E04D46002E17D1AF
:109FF000184802689046111C013102324046FFF7B2
:10A00000A1FF05280BD0002804D098210F4AFCF7A7
:10A01000FFF805E00C4A13684046984700E04E46BA
:10A02000002CB4D0002DB2D0002EB0D0BD4602B06E
:10A030001CBC90469946A246F0BDC046782B002035
:10A04000802B0020882B00207C2B002054C2030092
:10A050007A2B0020842B0020F8B54F464646C0B42A
:10A0600000AF061C0C1C914698461BD0081CFFF73D
:10A070005FFF051C0720002D15D00D4B1C600D48FF
:10A080004A4602800C4944460C60301C0B49FFF7DD
:10A090004DFF002807D10126094D2E701620FFF72D
:10A0A00041FF00E00720BD460CBC90469946F8BD34
:10A0B000842B00207A2B00208C2B0020499F03004A
:10A0C000782B002080B500AF002803D0034B186028
:10A0D000002000E00E20BD4680BDC046882B002039
:10A0E00080B500AF002803D0034B1860002000E0CB
:10A0F0000E20BD4680BDC046802B002080B500AF3D
:10A10000084B1868002808D08047002807D09921FC
:10A110004900054AFCF77CF801E0FFF71DFFBD464A
:10A1200080BDC0468C2B002054C2030080B584B093
:10A1300000AF1D4B1878022807D0032819D001283A
:10A140002FD1012219494A622BE000203871B860F2
:10A15000F860174A1168002904D10020BA21154A75
:10A16000FCF756F8124B1B687868B968FA6898478C
:10A1700017E001233B710D480F4A8158B9600F4B1E
:10A18000C058F8600A4A1168002904D10020C32190
:10A19000084AFCF73DF8064B1B687868B968FA680E
:10A1A0009847BD4604B080BDA42B0020004000406D
:10A1B0009C2B002090C203003C0500004C050000D1
:10A1C00080B500AF024B1870FFF7B0FFBD4680BDF1
:10A1D000A42B002080B500AF942358001B4A1158CF
:10A1E00000291FD0002094235900505018480378AC
:10A1F000012B17D117490868131C174A98501749A3
:10A200000868174A985017490868A722D100585083
:10A2100015480168A922D000195001219962022035
:10A22000FFF7CEFF82235800084A115800290AD0B0
:10A230000020822359005050054A1078022802D18C
:10A240000320FFF7BDFFBD4680BDC0460040004073
:10A25000A42B0020982B002044050000A02B0020F8
:10A2600034050000942B0020902B002080B500AF17
:10A27000084B094A1360191C103108480160191C69
:10A280002031074A1160074807490B500120BD469D
:10A2900080BDC046AC2B0020DC2B0020E02B002032
:10A2A000A82B00200405000000E00040B0B500AF7E
:10A2B000051C1A4B1868814202D01022FCF7F2FDEF
:10A2C000174800218022540001510123036080209F
:10A2D000430413498022500004E0013B0A58002A3D
:10A2E00017D002E00C58002CF7D000218023580032
:10A2F0000B4C21500B4A11688D4207D0281C1022AC
:10A30000FCF7D0FD012002E0002000E00120BD4666
:10A31000B0BD013B002BE5D1F6E7C046E02B0020A5
:10A3200000E00040A82B002080B500AF011C034BCB
:10A3300018681022FCF7B6FDBD4680BDDC2B00205E
:10A3400080B500AF01238340181CA121CB00A022BF
:10A35000D105C850BD4680BD98B500AF3A4B1988AD
:10A360003A4A91420CD98B0059188800384A801813
:10A37000FA24A10001F03AFE6430364B18705EE01A
:10A38000354881423AD95A22514334480818FA21B3
:10A3900001F02CFE011C0A31CCB2201C032101F07B
:10A3A0001BFECB43E218D0B22A490870622804D9B8
:10A3B00062200870622000230FE0092805D80A22D5
:10A3C000244B1A7001230A2005E00023462484420E
:10A3D0005B41272801D80133DBB221490C88214A8F
:10A3E0001188CB1A9C4202DD01301A4A10709C423F
:10A3F00025DA18480478013C047020E01A4C2388C0
:10A400008B4202D9C839184A118017490C8817485D
:10A41000844203D909240F4B1C7010E0144B9C425A
:10A4200003D800200B49087009E0E2001119114C13
:10A430000819C823590001F0D9FD064A10700549D2
:10A440000878BD4698BDC046F02B0020B80B000030
:10A45000A015FFFFEA2B0020BE0A00003439FCFFE4
:10A46000EC2B0020EE2B0020E42B0020280A00001B
:10A4700097080000A8B2FFFF80B500AFA023D80066
:10A48000074A1158002903D00020A023D9005050BA
:10A490000022044802700020FFF752FFBD4680BD35
:10A4A00000700040E72B002098B500AF114B1880DA
:10A4B00011490A88041E944200D2141C0F480388D4
:10A4C000E11A0F4848430F4901F042FD42001418B9
:10A4D000A0000A2101F03CFD84B20B4804800B4B24
:10A4E0001978A02902D8201CFFF736FF201CBD4692
:10A4F00098BDC046EC2B0020EE2B0020E82B00205E
:10A50000D51B0000FF030000F02B0020EA2B0020E9
:10A5100098B500AF80235800244A1158002941D033
:10A52000141C002380204200A350A121CB00E0583E
:10A5300080B2012262601E4C2368002B2CD01D4C7F
:10A5400021784AB2002A08DD4C1C1A4A147049B21C
:10A5500089B29847002825D00BE0174B984204D8C1
:10A56000012414490C70802003E00131114801706E
:10A570000820124C23785A1E2270002B12D010494A
:10A580000870000202242043084B0E4A9850002114
:10A5900059600120186007E009490A78802A01D132
:10A5A000FFF782FFFFF768FFBD4698BD00700040CF
:10A5B000F42B0020F82B0020FF020000E62B0020E7
:10A5C000E72B00200405000080B500AF0123834085
:10A5D000181C0349A022D3055850BD4680BDC04673
:10A5E0000C05000080B500AFE0235900421892002E
:10A5F0000349A023DB05D150FFF7E6FFBD4680BD30
:10A6000003040000F0B500AF002B0DD101268E40F1
:10A61000194CA025ED052E51A22674000519AD0098
:10A62000164E174C2E510DE001268E40A124E40059
:10A63000A025ED052E51A22674000519AD00114E7E
:10A640000F4C2E51C046C046C0460D4C8500012619
:10A650002E5109020325294316040A1C3243190509
:10A66000131C0B434530FF3080000351C046C046E9
:10A67000C046BD46F0BDC0460C050000031F0200E9
:10A6800000600040031F010080B500AF4530FF307F
:10A690008000024A024BC250BD4680BD001F03002D
:10A6A0000060004080B500AF01238340181CA12149
:10A6B000CB00A022D105C850BD4680BD80B500AFFB
:10A6C00001238340181C0349A022D3055850BD46DE
:10A6D00080BDC0460C05000080B500AF002902D146
:10A6E000FFF7ECFF01E0FFF7DDFFBD4680BDC04690
:10A6F000F0B5474680B400AF314A0023A621480098
:10A70000135001246542C226B10055502D4A1360F2
:10A710002D4C2E4D2A4E98000259002A10D19A0035
:10A7200090462B4BD058FFF7AFFF2A4842461058AF
:10A730000021FFF7D1FF0021274B4046C1502BE0FD
:10A7400029688A4210D39A00904621495058FFF751
:10A750009BFF2048424610580121FFF7BDFF002112
:10A760001D4B4046C15017E05200A8204100581828
:10A7700081008A519900184BCA58002A0CD188468A
:10A78000134BC858134A895803220123FFF73AFF95
:10A790000121114B4046C1500A4A1368013313602E
:10A7A0000E4908789842B6D2054C08258026B2009A
:10A7B000A55001232360BD4604BC9046F0BDC046B1
:10A7C00000A00040FC2B00203C340020603400201E
:10A7D000C0C203004834002054340020002400206C
:10A7E000A0DF7047A2DF7047A5DF7047A6DF704784
:10A7F000A8DF704762DF704780B500AF0870030ABA
:10A800004B70020C8A70000EC8700420BD4680BDDB
:10A8100080B500AF427811020378081C1843BD468A
:10A8200080BDC04680B500AFFFF7F2FF012318409E
:10A83000BD4680BD80B500AF8B880380BD4680BD1E
:10A8400090B583B000AF041C0223FB80408A002136
:10A85000BA1D3B1DFFF7C8FF002805D0616A00291B
:10A8600006D08847002004E0381DFFF7DBFF00E03A
:10A870000020BD4603B090BD80B584B000AFCA884B
:10A88000C3889A4208D108223A71CB8B3B7220319F
:10A89000F960026A391D9047BD4604B080BDC046CC
:10A8A00080B500AF012359420180BD4680BDC0463E
:10A8B00080B58EB000AF031C0022FA613A627A6262
:10A8C000BA62FA623A637A630C213977391D0079EA
:10A8D000B8710C48B8803A80112078700320B870A5
:10A8E0003A617A61BA61B9603A1CFA601420B882A0
:10A8F0005888063318313A1C0832FFF773FFBD46FB
:10A900000EB080BD3215000080B58EB000AF031CC4
:10A910000022FA613A627A62BA62FA623A637A6350
:10A9200018213977391D0079B8710C48B8803A8000
:10A93000112078701320B8703A617A61BA61B960F9
:10A940003A1CFA601720B88258880E3318313A1C26
:10A950000832FFF747FFBD460EB080BD311500003D
:10A96000B0B586B000AF041C0D1C002834D00029FF
:10A9700034D00E200B68002B31D0012041422180C1
:10A98000381D18491022FCF78DFA174ABA82381D73
:10A99000391C1631FFF72EFF002820D1A21C012000
:10A9A000391C1431FFF71CFF002818D1BB7D23711F
:10A9B000201CFFF77DFF002811D1201CFFF7A4FF0A
:10A9C00000280CD1296821626D68002D00D06562D5
:10A9D0000124064A147002E00E2000E00E20BD465D
:10A9E00006B0B0BDF0C2030030150000002C0020FE
:10A9F000F0B5474680B486B000AF041E2AD0028866
:10AA00000820174B9A4226D0164D2E78002E22D0C1
:10AA1000154D1020287007226A7001239846AB70EC
:10AA2000BE1D0320F880EA1C081C111CFFF7E4FE81
:10AA3000F9884318FB800020B860F860E2893A8109
:10AA40004146B9723E617D612088391C0831FFF7AB
:10AA5000CDFE00E00E20BD4606B004BC9046F0BD21
:10AA6000FFFF0000002C0020042C0020F0B587B070
:10AA700000AF041E25D002880820144B9A4221D032
:10AA8000134D2E78002E1DD0124E11203070BD1D9A
:10AA90000122FA80731C081C191CFFF7ADFEF9880F
:10AAA0004018F8800022BA60FA60E3893B810121F6
:10AAB000B9723D617E612088391C0831FFF796FE2E
:10AAC00000E00E20BD4607B0F0BDC046FFFF00000D
:10AAD000002C0020042C0020B0B586B000AF031E6F
:10AAE00020D005880820114CA5421CD010480578BC
:10AAF0000820002D17D00F48102404704170827078
:10AB0000BA1D0321F9800025BD60FD60DC893C8110
:10AB10000121B9723A6178611888391C0831FFF750
:10AB200065FE00E00E20BD4606B0B0BDFFFF000090
:10AB3000002C0020042C0020F0B589B000AF041CCC
:10AB40000E1C02233B74FFF77BFE002808D1374917
:10AB5000B9822088391C1031FFF74AFE051C60E0DD
:10AB60000020B8822088391C1031FFF741FE051EF5
:10AB700057D1B17E08294FD88B002D4AD05887462F
:10AB800000203871226A201C391D904749E00126B7
:10AB90003E71236A201C391D984742E00221397119
:10ABA000226A201C391D90473BE003203871236A3C
:10ABB000201C391D984734E004223A71266A201C73
:10ABC000391DB0472DE005213971236A201C391D3C
:10ABD000984726E0318B022906D8201C0821032241
:10ABE000FFF77AFF051C1CE0301C1B30FFF710FE3E
:10ABF0003881002802D107233B7101E006263E710F
:10AC0000226A201C391D90470BE009203871266A02
:10AC1000201C391DB04704E0201C0322FFF75CFF15
:10AC2000051C281CBD4609B0F0BDC046FD01000052
:10AC3000CCC2030098B500AF041C8B79022B0DD158
:10AC40000A89C089824209D10831201CFFF774FFAC
:10AC5000002803D0616A002900D08847BD4698BD0E
:10AC600080B500AF00281BD0002919D0036A002B43
:10AC700016D00A88112A0ED002D8102A10D104E06A
:10AC8000502A05D0512A0BD108E0FFF7D3FD07E089
:10AC9000FFF7F2FD04E0FFF703FE01E0FFF7CAFF54
:10ACA000BD4680BD00000000000000000000000064
:10ACB00080B500AF026882F3088843681847C04631
:10ACC000BD4680BDC046C046C046C046C046C04620
:10ACD00080B500AFFFF7ECFFBD4680BD80B500AF8B
:10ACE000FC2399020160BD4680BDC04680B500AF1F
:10ACF0001F231840012181408023024AD150BD46C4
:10AD000080BDC04600E100E03DDF704711DF7047C5
:10AD100013DF7047F8B500AF0C4B1E680024012507
:10AD2000281CA040064202D060B2FFF7DFFF0134CA
:10AD30002A1CA240164205D001E0BD46F8BD60B213
:10AD4000FFF7D4FF0134202CEAD1F6E700E100E060
:10AD500080B500AF084B1878012803D1022901D132
:10AD6000054B1970002A04D0101C3421034AFBF74C
:10AD70004FFABD4680BDC046182C002000C303001A
:10AD8000B0B500AF084C094DFFF7BEFF002803D057
:10AD90004521221CFBF73CFAFEF7F8FA2B78023B20
:10ADA000022BF1D8BD46B0BD00C30300182C002013
:10ADB00098B500AF041C0C480C21FEF7DBFF0028FF
:10ADC00003D08421094AFBF723FA0748211C0C22EF
:10ADD0000023FEF713FF002803D08A21034AFBF764
:10ADE00017FABD4698BDC0461C2C002000C30300C6
:10ADF00080B582B000AF80239902884216D1381DF9
:10AE0000FFF76CFF7B681A780020012A0FD1598860
:10AE1000002905D09968802080020022FDF792FB6E
:10AE20007B685A88101A4342584100E00020BD4612
:10AE300002B080BD90B585B000AF38607960C4B213
:10AE4000381C0C30FFF74AFF002C0DD124487A88BB
:10AE500042807B68836001210170FF240471214AD4
:10AE60001170FFF7A5FF37E0032C0BD100F036FE81
:10AE7000002803D0A3211C4AFBF7CAF90320194C70
:10AE8000207029E0012C0BD11548002444808460F7
:10AE9000FE220270FB6819790171FFF789FF1BE040
:10AEA000022C0CD1F9680C780D4804704A88428055
:10AEB0008B688360FE210171FFF77AFF0CE0042CA0
:10AEC0000AD100F00BFE002803D0BD21064AFBF793
:10AED0009FF90422034B1A70BD4605B090BDC046D1
:10AEE0000C2C0020182C002000C3030090B585B066
:10AEF00000AF104B7B600C20B8600121F960FEF7B9
:10AF0000D1FD041E11D10C49FC2294024C60381D65
:10AF1000FEF700FE041E08D100F0AEF8041E04D1B6
:10AF200000F0B4FD041CFFF72BFF201CBD4605B04C
:10AF300090BDC04651AD03001C2C002080B500AF71
:10AF4000FFF7E4FE002803D00A490B4AFBF760F93B
:10AF5000FFF7E0FEFFF7DCFE002804D08721490060
:10AF6000054AFBF755F980208002FFF7B1FEBD4688
:10AF700080BDC0460901000000C3030090B585B044
:10AF800000AF041C381D08490C220023FEF796FE72
:10AF90003B792370F8886080F968A1603A7A227161
:10AFA000BD4605B090BDC0461C2C002080B500AF4A
:10AFB000427811020378081C1843BD4680BDC04684
:10AFC00080B582B000AF0122054B1A7003203870A3
:10AFD00038687968FFF72EFFBD4602B080BDC046D5
:10AFE000382C002080B500AF0C48007804280BD125
:10AFF000022909D1002A09D1094A1268002A0AD077
:10B000000020191C904706E0002A04D0101C4D2196
:10B01000044AFBF7FDF8BD4680BDC0462C2C00203D
:10B02000242C002018C3030098B500AF0F4B1878EC
:10B030000824002816D10E490868FDF7F1F8002809
:10B0400003D070210B4AFBF7E3F8094A1068F0249B
:10B0500061030022FDF7B0F8041E03D07321054AF6
:10B06000FBF7D6F8201CBD4698BDC046382C002002
:10B07000842C002018C30300B0B586B000AF2E4862
:10B080002E4B036000212E4A11702E4C21802E4938
:10B09000FEF7BCFE041E03D000252C4B1D7046E0BD
:10B0A000294B802085025D60294921CB21C1381CB4
:10B0B0000C30FFF763FF3A7CFE2A04D1AC239802E0
:10B0C00005686B1C11D02248B0214902FEF706FF2B
:10B0D000002804D000241D4A1470041C27E002221A
:10B0E0003A717868B968FFF7A5FE1A4800211A4A34
:10B0F000FDF704F8002803D0A321184AFBF788F8CD
:10B10000144B1868F02569030022FDF755F8002854
:10B1100003D0A721114AFBF77BF8B0204102104A67
:10B12000116000250F4B1D60012008490870201C8C
:10B13000BD4606B0B0BDC046902C0020E5AF030070
:10B14000282C00202A2C0020302C00202C2C002021
:10B15000882C0020842C0020C1AF030018C30300FA
:10B16000402C00209C2C002080B500AF014B1860C3
:10B17000BD4680BD242C002098B500AF041C0C4BAC
:10B1800019680C20A14211D30620A3070ED109484B
:10B1900002780820012A09D1FFF746FF002805D1CF
:10B1A000054B1C60022403490C70FFE7BD4698BDA7
:10B1B000402C00202C2C00203C2C0020B0B500AFEF
:10B1C000041E36D01020A268920735D11B4B187888
:10B1D000C1B202292FD3032902D904292BD102E0BD
:10B1E0000422164B1A706068850015490A68A81871
:10B1F000144B1968884205D901204242104B1A604D
:10B200000C2019E0FFF710FF002815D1A1680C4CA5
:10B2100023680D482A1CFEF71FFE00280CD1084B9E
:10B220001A68AD181D6007490C68A54204D00920B2
:10B2300002E00E2000E00820BD46B0BD2C2C00200E
:10B240009C2C00203C2C0020882C0020F8B500AF5E
:10B25000041C174B1878C2B2022A03D00820032A14
:10B2600023D102E00325124E3570124B1A680820D4
:10B27000002A1AD1FFF7D8FE002816D161680029EC
:10B2800013D00D4D2A7800230C4EB4469900A568C2
:10B290004D59910066468D510132D2B20133656835
:10B2A0009D42F3D8044C2270FFE7BD46F8BDC0466E
:10B2B0002C2C00209C2C0020282C0020442C00202A
:10B2C000B0B500AF164B18780824042825D1052204
:10B2D00013490A70134C2568134B186808248542DB
:10B2E0001BD1FFF7A1FE041E17D10F4A116880255C
:10B2F000A8020022FDF726F9051C0C4908800C481D
:10B30000FFF754FE0B4B1A78002A01D0854203D177
:10B310000620034D287000E00B24201CBD46B0BD64
:10B320002C2C00209C2C00203C2C00202A2C0020BF
:10B33000442C0020282C002090B583B000AF0F4B88
:10B3400018780824062814D10D490868FCF768FF0E
:10B35000041E04D00B490C4AFAF75AFF09E00022F8
:10B360003A700A4B18887880094909683868FFF7ED
:10B3700061FD201CBD4603B090BDC0462C2C0020B2
:10B38000842C00209301000018C303002A2C002005
:10B390003C2C002080B582B000AF04233B7038689D
:10B3A0007968FFF747FDBD4602B080BD73DF704787
:10B3B00074DF704776DF70477ADF70477CDF704755
:10B3C0007FDF7047A9DF704780B500AF4278110278
:10B3D00083781A04114303781943C0780206081CC5
:10B3E0001043BD4680BDC04680B500AFC130FF30C0
:10B3F00080000122A023D9054250BD4680BDC04631
:10B4000080B500AF01238340181CA121CB00A022EE
:10B41000D105C850BD4680BD80B500AF0123834033
:10B42000181C0349A022D3055850BD4680BDC04614
:10B430000C05000080B500AF031C0120002B13D0C9
:10B440000C2B0ED89800094A13589F4601200BE098
:10B45000032009E0042007E00439481E8141481D0B
:10B4600002E0062000E00220BD4680BD38C3030094
:10B4700080B500AF0020FFF7B7FF0020FFF7B4FF53
:10B480000020FFF7B1FFBD4680BDC04680B500AFCC
:10B490000A4B1E221A80997801200843FD22104091
:10B4A0001C2188430C221043DD210840987007209E
:10B4B000D87010221A71BD4680BDC046D02C002025
:10B4C00080B500AF094B187800280DD0FFF770FF4A
:10B4D000002803D00649074AFAF79AFE0020FFF732
:10B4E0009BFF002201490A70BD4680BDA02C0020B0
:10B4F0002A02000094C3030080B500AF0249034A4A
:10B50000FAF786FEBD4680BDDB02000094C303004F
:10B5100080B500AF0249034AFAF77AFEBD4680BD06
:10B520009F01000094C3030080B500AF0A4B187858
:10B5300000280FD10948FFF739FF002804D08621E1
:10B540008900074AFAF764FE0020FFF759FF01223D
:10B55000014B1A70BD4680BDA02C0020E02C0020BD
:10B5600094C3030098B500AF041C0388132B21D0AB
:10B5700004D8102B07D0112B44D111E0522B35D019
:10B58000552B3FD123E00020FFF73AFF0020FFF7C3
:10B5900043FFA4881C4B1C8000221C48027031E031
:10B5A0000020FFF739FFFFF7BFFF01225042164985
:10B5B000088027E0144A10880021154AFFF700FF91
:10B5C00000281FD01349144AFAF722FE1AE08179A5
:10B5D000002917D10C4C20881321FFF7EBFE00281F
:10B5E00010D00E490C4AFAF713FE0BE0064B1888F0
:10B5F00000210022FFF7E6FE002803D00849064A92
:10B60000FAF706FEBD4698BD02240020A02C0020BB
:10B61000D02C00205902000094C3030061020000F6
:10B620006702000080B584B000AF3A790F239A43D7
:10B6300001210A431340102003433B71381D104978
:10B640000722FFF7BBFE002803D00E490E4AFAF787
:10B65000DFFD0022FA6009233B810C217981C8209B
:10B660004200FA81381C0830FFF7A6FE002803D0FC
:10B670000649054AFAF7CCFDBD4604B080BDC04678
:10B68000B4C303009D02000094C30300A70200009E
:10B6900080B582B000AF084B3B600848786008482E
:10B6A000391CFFF75DF9002803D00649064AFAF76E
:10B6B000AFFDBD4602B080BD2DBB0300F9B4030051
:10B6C000A82C0020EE02000094C3030098B500AF40
:10B6D000041C081C0321FFF7ADFE021C201C0321E3
:10B6E000FFF7FAF9002803D0B721024AFAF790FDD4
:10B6F000BD4698BD94C3030098B500AF041C0B79F8
:10B70000042B0AD001210322FFF7E6F9002817D005
:10B71000CB210C4AFAF77CFD12E08868FFF754FE53
:10B72000FFF72AFD0121FFF785FE021C201C0121E5
:10B73000FFF7D2F9002803D0DC21024AFAF768FDAE
:10B74000BD4698BD94C30300F0B585B000AF061C9C
:10B7500001237B608868F8600C7903221440002282
:10B76000002C1FD004252B1BDAB2002A1AD000248B
:10B77000551E012028400B799B00FD685C51012378
:10B78000012A28D80EE00D79E8188000FD684451A0
:10B7900001330879C518A800FD6844510133D8B2B7
:10B7A0008242F0D809798C18A308BB60381DFFF7D6
:10B7B0004DFD0221FFF73EFE021C301C0221FFF767
:10B7C0008BF9002804D087225100094AFAF720FD9E
:10B7D000BD4605B0F0BD0028D5D00879C518A80031
:10B7E000FD6844510133D8B28242CCD8DAE7C04672
:10B7F00094C30300F0B585B000AF051C0C1C08799C
:10B8000082070BD0281C03210322FFF765F90028CB
:10B8100075D03C493C4AFAF7FBFC70E0F8603B49C4
:10B82000FCF70EFF011E03D0281CFFF74FFF66E058
:10B83000364B1868A168FA68FBF734FBF868FCF728
:10B840007BFF011E03D0281CFFF740FF57E02F4865
:10B85000391C0C31FCF782FF011E03D0281CFFF7B6
:10B8600035FF4CE0FA689008786003213960274E74
:10B870003368BB60381CFFF7A1FC061E10D12448BA
:10B880002379028899180180281C03210122FFF7DF
:10B8900023F9002833D01F491B4AFAF7B9FC2EE0E0
:10B8A00009281FD120791A4B1A88811889B219806A
:10B8B000194E3478002C22D018480388013B9AB2E4
:10B8C0000280002A1BD1281CFFF7D0F8002804D0E2
:10B8D000B22569000C4AFAF79BFC11490E880F4CFF
:10B8E00026800CE0094C2068FCF7D6FE011E02D031
:10B8F000281CFFF7EBFE281C311CFFF7E7FEBD46B6
:10B9000005B0F0BD2301000094C30300F42C002017
:10B91000DC2C002053010000DA2C0020A22C002097
:10B92000D82C002080B500AF094B1A78D3B2022B77
:10B9300006D0032B07D0012B07D1FFF7DDFE04E073
:10B94000FFF702FF01E0FFF755FFBD4680BDC0468F
:10B95000A42C002080B500AF00280ED00C4B188816
:10B960000C49884212D01321FFF724FD00280DD086
:10B970006D21094AFAF74CFC08E0081CFCF78CFE24
:10B98000002803D07321044AFAF742FCBD4680BD6B
:10B9900002240020FFFF000094C3030080B590B094
:10B9A00000AFF91C0623FB703A1D19480379BB71DF
:10B9B0001848B8800023BB60FB607B61BB613B62C1
:10B9C0007B62BB62FB623B637B63BB63FB63022006
:10B9D00038720123BB8139613B83FA61381C08301E
:10B9E0000021FDF7A7F9002803D00B490B4AFAF70D
:10B9F0000FFC0B4A0020111C01C15060043101C131
:10BA000001C10860C82398001082BD4610B080BDF7
:10BA1000A82C002030150000C502000094C30300CC
:10BA2000E02C002080B588B000AF00237B603B6134
:10BA30007B61BB610A48B8608021CA01FA600323B8
:10BA40003B740848F861381DFDF7CEFA002804D091
:10BA5000DB214900044AFAF7DBFBBD4608B080BD94
:10BA6000CD0C000011B5030094C3030098B500AFDE
:10BA7000041CFDF701FB0448211CFFF7F1F8201C12
:10BA8000FFF770FDBD4698BDA82C002098B500AF0B
:10BA900000220F4B1A70FFF7EBFC0E48FEF712FB6B
:10BAA000041E12D10C48FFF75FFBFCF7B1FD041E2A
:10BAB0000BD1FFF7B7FDFFF7EBFDFFF76FFFFFF7C8
:10BAC000B1FFFFF7E3FCFFF72FFD201CBD4698BD3B
:10BAD000A42C00206DBA030055B9030080B500AF57
